:100312003F065B4F666D7D077F6FFEFDFBF7EFDFEC
:10032200BF7F3F065B4F666D7D077F6F777C395ECF
:03033200797100DE
:1002EE00C100012D00012E00012C0B01230B013D3D
:1002FE0014013C160D2F54494D452049532055509D
:03030E00210A00C1
:040377007FE87E039A
:0B037B00EF1FAC0670011E4C70F62254
:0F038600759850438920758DFD758BFDD28E22A1
:080003008F993099FDC299228A
:1002C9008B088A09890AAB08AA09A90A12034E6090
:1002D90013050AE50A7002050914F912034EFF1203
:0502E900000380E22289
:10025B0075246DE4F525F526E52C75F00A849003DD
:10026B001293F527E52C75F00A84E5F093F528E455
:10027B00F529E52375F00A8493F52AE52375F00A31
:07028B0084E5F093F52B223E
:10029200752473E4F525F526E53D75F00A8490038F
:1002A2001293F527E53D75F00A84E5F093F528E40D
:1002B200F529E53C75F00A8493F52AE53C75F00AC8
:0702C20084E5F093F52B2207
:10036700438901758CF8758A30D2AFD2A9D28C2215
:1003350012036720000512025B80063000031202DB
:090345009212000E1201EE80EA92
:03000B0002016887
:10016800C0E0C083C082C0D075D000C001C002C04A
:0701780003C004C006C0072C
:10017F00758CF8758A300522E52270020521B4F4DA
:10018F001FE521B4011A7521007522000523E5230F
:10019F00B43C0D752300052CE52CB43C03752C00E5
:1001AF00E52CB53D23E523B53C1EB2A57F207E038C
:1001BF0012037B1203867B007A00792F1202C97F0C
:0A01CF00D07E0712037B8002C2A558
:1001D900D007D006D004D003D002D001D0D0D0822D
:0501E900D083D0E032DC
:1001EE00E4FDEDB40800504D9001FDF8282873028F
:1001FE00023D02023902023102022D0202250202E2
:10020E0021020219020215C2A28002D2A2C2A3C208
:10021E00A48022C2A28002D2A2D2A3C2A48016C2FD
:10022E00A28002D2A2C2A3D2A4800AC2A28002D20B
:10023E00A2D2A3D2A474242DF8E6F5807F647E00AA
:0C024E0012037BE4F5800DED640870964F
:01025A002281
:10000E0020B11012037720B107B200200002D2A94E
:10001E0030B1FD20B02712037720B01EC2A92000F8
:10002E000C052DE52DB40405D2A9E4F52D30000AFA
:10003E00052EE52EB40403E4F52E30B0FD20B245B6
:10004E0012037720B23CE52DB4020A052CE52CB440
:10005E003C03E4F52CE52DB4030A0523E523B43C5B
:10006E0003E4F523E52EB4020A053DE53DB43C0359
:10007E00E4F53DE52EB4030A053CE53CB43C03E44F
:10008E00F53C30B2FD20B34512037720B33CE52D8D
:10009E00B4020A152CE52CB4FF03752C3BE52DB4E8
:1000AE00030A1523E523B4FF0375233BE52EB402A3
:1000BE000A153DE53DB4FF03753D3BE52EB4030A3D
:0E00CE00153CE53CB4FF03753C3B30B3FD220E
:030000000200DC1F
:0C00DC00787FE4F6D8FD75813D02012319
:10034E00BB010689828A83E0225002E722BBFE02AD
:09035E00E32289828A83E49322E0
:1000E800020335E493A3F8E493A34003F68001F2F6
:1000F80008DFF48029E493A3F85407240CC8C33319
:10010800C4540F4420C8834004F456800146F6DFE7
:10011800E4800B01020408102040809002EEE47E87
:10012800019360BCA3FF543F30E509541FFEE493DC
:10013800A360010ECF54C025E060A840B8E493A3A3
:10014800FAE493A3F8E493A3C8C582C8CAC583CACE
:10015800F0A3C8C582C8CAC583CADFE9DEE780BE86
:0103110000EB
:00000001FF
