BL51 BANKED LINKER/LOCATER V6.22                                                        05/27/2022  16:43:43  PAGE 1


BL51 BANKED LINKER/LOCATER V6.22, INVOKED BY:
D:\KEIL\C51\BIN\BL51.EXE main.obj TO 定时闹钟 RAMSIZE (256)


MEMORY MODEL: SMALL


INPUT MODULES INCLUDED:
  main.obj (MAIN)
  D:\KEIL\C51\LIB\C51S.LIB (?C_STARTUP)
  D:\KEIL\C51\LIB\C51S.LIB (?C?CLDPTR)
  D:\KEIL\C51\LIB\C51S.LIB (?C_INIT)


LINK MAP OF MODULE:  定时闹钟 (MAIN)


            TYPE    BASE      LENGTH    RELOCATION   SEGMENT NAME
            -----------------------------------------------------

            * * * * * * *   D A T A   M E M O R Y   * * * * * * *
            REG     0000H     0008H     ABSOLUTE     "REG BANK 0"
            DATA    0008H     0003H     UNIT         _DATA_GROUP_
                    000BH     0015H                  *** GAP ***
            BIT     0020H.0   0000H.2   UNIT         ?BI?MAIN
                    0020H.2   0000H.6                *** GAP ***
            DATA    0021H     001DH     UNIT         ?DT?MAIN
            IDATA   003EH     0001H     UNIT         ?STACK

            * * * * * * *   C O D E   M E M O R Y   * * * * * * *
            CODE    0000H     0003H     ABSOLUTE     
            CODE    0003H     0008H     UNIT         ?PR?_UART_SEND_BYTE?MAIN
            CODE    000BH     0003H     ABSOLUTE     
            CODE    000EH     00CEH     UNIT         ?PR?KEYSCAN?MAIN
            CODE    00DCH     008CH     UNIT         ?C_C51STARTUP
            CODE    0168H     0086H     UNIT         ?PR?TIMER0_ISR?MAIN
            CODE    01EEH     006DH     UNIT         ?PR?DIGDISPLAY?MAIN
            CODE    025BH     0037H     UNIT         ?PR?CLOCK_INIT?MAIN
            CODE    0292H     0037H     UNIT         ?PR?ALARM_INIT?MAIN
            CODE    02C9H     0025H     UNIT         ?PR?_UART_SEND_STRING?MAIN
            CODE    02EEH     0024H     UNIT         ?C_INITSEG
            CODE    0312H     0023H     UNIT         ?CO?MAIN
            CODE    0335H     0019H     UNIT         ?PR?MAIN?MAIN
            CODE    034EH     0019H     UNIT         ?C?LIB_CODE
            CODE    0367H     0010H     UNIT         ?PR?INIT_TIMER0?MAIN
            CODE    0377H     000FH     UNIT         ?PR?_DELAY?MAIN
            CODE    0386H     000FH     UNIT         ?PR?UART_INIT?MAIN



OVERLAY MAP OF MODULE:   定时闹钟 (MAIN)


SEGMENT                              DATA_GROUP 
  +--> CALLED SEGMENT              START    LENGTH
--------------------------------------------------
?PR?TIMER0_ISR?MAIN                -----    -----
  +--> ?PR?_DELAY?MAIN
BL51 BANKED LINKER/LOCATER V6.22                                                      05/27/2022  16:43:43  PAGE 2


  +--> ?PR?UART_INIT?MAIN
  +--> ?PR?_UART_SEND_STRING?MAIN

?PR?_UART_SEND_STRING?MAIN         0008H    0003H
  +--> ?PR?_UART_SEND_BYTE?MAIN

*** NEW ROOT ***************************************************

?C_C51STARTUP                      -----    -----
  +--> ?PR?MAIN?MAIN
  +--> ?C_INITSEG

?PR?MAIN?MAIN                      -----    -----
  +--> ?PR?INIT_TIMER0?MAIN
  +--> ?PR?CLOCK_INIT?MAIN
  +--> ?PR?ALARM_INIT?MAIN
  +--> ?PR?KEYSCAN?MAIN
  +--> ?PR?DIGDISPLAY?MAIN

?PR?CLOCK_INIT?MAIN                -----    -----
  +--> ?CO?MAIN

?PR?ALARM_INIT?MAIN                -----    -----
  +--> ?CO?MAIN

?PR?KEYSCAN?MAIN                   -----    -----
  +--> ?PR?_DELAY?MAIN

?PR?DIGDISPLAY?MAIN                -----    -----
  +--> ?PR?_DELAY?MAIN



SYMBOL TABLE OF MODULE:  定时闹钟 (MAIN)

  VALUE           TYPE          NAME
  ----------------------------------

  -------         MODULE        MAIN
  C:0000H         SYMBOL        _ICE_DUMMY_
  D:0023H         PUBLIC        second
  D:0080H         PUBLIC        P0
  D:00A0H         PUBLIC        P2
  D:00B0H         PUBLIC        P3
  B:00A8H.7       PUBLIC        EA
  C:037BH         PUBLIC        _delay
  D:0024H         PUBLIC        TempData
  D:002CH         PUBLIC        minute
  B:0020H.0       PUBLIC        k1_flag
  B:00B0H.1       PUBLIC        k1
  D:002DH         PUBLIC        k4_flag
  B:00B0H.0       PUBLIC        k2
  B:00A0H.5       PUBLIC        BEEP
  D:002EH         PUBLIC        k5_flag
  B:0098H.1       PUBLIC        TI
  D:002FH         PUBLIC        Buf
  B:00B0H.2       PUBLIC        k3
BL51 BANKED LINKER/LOCATER V6.22                                                      05/27/2022  16:43:43  PAGE 3


  B:00B0H.3       PUBLIC        k4
  C:025BH         PUBLIC        clock_init
  C:0335H         PUBLIC        main
  C:0292H         PUBLIC        alarm_init
  C:0367H         PUBLIC        Init_Timer0
  D:003CH         PUBLIC        second1
  D:0099H         PUBLIC        SBUF
  C:000EH         PUBLIC        KeyScan
  D:0098H         PUBLIC        SCON
  D:0089H         PUBLIC        TMOD
  C:0312H         PUBLIC        dofly_DuanMa
  C:02C9H         PUBLIC        _UART_send_string
  D:003DH         PUBLIC        minute1
  B:00A8H.1       PUBLIC        ET0
  D:008CH         PUBLIC        TH0
  D:008DH         PUBLIC        TH1
  D:008AH         PUBLIC        TL0
  D:008BH         PUBLIC        TL1
  C:0386H         PUBLIC        UART_init
  B:0088H.4       PUBLIC        TR0
  C:031CH         PUBLIC        dofly_WeiMa
  B:0088H.6       PUBLIC        TR1
  B:00A0H.2       PUBLIC        LSA
  C:0003H         PUBLIC        _UART_send_byte
  B:00A0H.3       PUBLIC        LSB
  B:00A0H.4       PUBLIC        LSC
  C:0168H         PUBLIC        Timer0_isr
  C:01EEH         PUBLIC        DigDisplay
  C:0324H         PUBLIC        smgduan
  B:0020H.1       PUBLIC        UpdateTimeFlag
  C:0377H         SYMBOL        L?0088
  -------         PROC          L?0087
  -------         ENDPROC       L?0087
  C:0377H         SYMBOL        L?0088
  -------         PROC          _DELAY
  D:0006H         SYMBOL        i
  C:037BH         LINE#         47
  C:037BH         LINE#         48
  C:037BH         LINE#         49
  C:0385H         LINE#         50
  -------         ENDPROC       _DELAY
  -------         PROC          UART_INIT
  C:0386H         LINE#         52
  C:0386H         LINE#         53
  C:0386H         LINE#         54
  C:0389H         LINE#         56
  C:038CH         LINE#         57
  C:038FH         LINE#         58
  C:0392H         LINE#         60
  C:0394H         LINE#         61
  -------         ENDPROC       UART_INIT
  -------         PROC          _UART_SEND_BYTE
  D:0007H         SYMBOL        dat
  C:0003H         LINE#         63
  C:0003H         LINE#         64
  C:0003H         LINE#         65
  C:0005H         LINE#         66
BL51 BANKED LINKER/LOCATER V6.22                                                      05/27/2022  16:43:43  PAGE 4


  C:0008H         LINE#         67
  C:000AH         LINE#         68
  -------         ENDPROC       _UART_SEND_BYTE
  -------         PROC          _UART_SEND_STRING
  D:0008H         SYMBOL        buf
  C:02C9H         LINE#         70
  C:02CFH         LINE#         71
  C:02CFH         LINE#         72
  C:02DAH         LINE#         73
  C:02DAH         LINE#         74
  C:02EBH         LINE#         75
  C:02EDH         LINE#         76
  -------         ENDPROC       _UART_SEND_STRING
  -------         PROC          CLOCK_INIT
  C:025BH         LINE#         78
  C:025BH         LINE#         79
  C:025BH         LINE#         80
  C:025EH         LINE#         81
  C:0261H         LINE#         82
  C:0263H         LINE#         83
  C:026FH         LINE#         84
  C:027AH         LINE#         85
  C:027DH         LINE#         86
  C:0286H         LINE#         87
  C:0291H         LINE#         88
  -------         ENDPROC       CLOCK_INIT
  -------         PROC          ALARM_INIT
  C:0292H         LINE#         90
  C:0292H         LINE#         91
  C:0292H         LINE#         92
  C:0295H         LINE#         93
  C:0298H         LINE#         94
  C:029AH         LINE#         95
  C:02A6H         LINE#         96
  C:02B1H         LINE#         97
  C:02B4H         LINE#         98
  C:02BDH         LINE#         99
  C:02C8H         LINE#         100
  -------         ENDPROC       ALARM_INIT
  -------         PROC          INIT_TIMER0
  C:0367H         LINE#         102
  C:0367H         LINE#         103
  C:0367H         LINE#         104
  C:036AH         LINE#         105
  C:036DH         LINE#         106
  C:0370H         LINE#         107
  C:0372H         LINE#         108
  C:0374H         LINE#         109
  C:0376H         LINE#         110
  -------         ENDPROC       INIT_TIMER0
  -------         PROC          MAIN
  C:0335H         LINE#         112
  C:0335H         LINE#         113
  C:0335H         LINE#         114
  C:0338H         LINE#         115
  C:0338H         LINE#         116
  C:0338H         LINE#         117
BL51 BANKED LINKER/LOCATER V6.22                                                      05/27/2022  16:43:43  PAGE 5


  C:033BH         LINE#         118
  C:033BH         LINE#         119
  C:033EH         LINE#         120
  C:0340H         LINE#         121
  C:0343H         LINE#         122
  C:0343H         LINE#         123
  C:0346H         LINE#         124
  C:0346H         LINE#         125
  C:0349H         LINE#         126
  C:034CH         LINE#         127
  -------         ENDPROC       MAIN
  -------         PROC          TIMER0_ISR
  -------         DO            
  D:0021H         SYMBOL        num
  -------         ENDDO         
  C:0168H         LINE#         130
  C:017FH         LINE#         133
  C:0182H         LINE#         134
  C:0185H         LINE#         135
  C:018DH         LINE#         136
  C:0195H         LINE#         137
  C:0195H         LINE#         138
  C:019BH         LINE#         139
  C:019DH         LINE#         140
  C:01A2H         LINE#         141
  C:01A2H         LINE#         142
  C:01A5H         LINE#         143
  C:01A7H         LINE#         144
  C:01ACH         LINE#         145
  C:01ACH         LINE#         146
  C:01AFH         LINE#         147
  C:01AFH         LINE#         148
  C:01AFH         LINE#         149
  C:01AFH         LINE#         150
  C:01B9H         LINE#         151
  C:01B9H         LINE#         152
  C:01BBH         LINE#         153
  C:01C2H         LINE#         154
  C:01C5H         LINE#         155
  C:01CEH         LINE#         156
  C:01D5H         LINE#         158
  C:01D7H         LINE#         160
  C:01D9H         LINE#         161
  -------         ENDPROC       TIMER0_ISR
  -------         PROC          DIGDISPLAY
  -------         DO            
  D:0005H         SYMBOL        i
  -------         ENDDO         
  C:01EEH         LINE#         163
  C:01EEH         LINE#         164
  C:01EEH         LINE#         165
  C:01F0H         LINE#         166
  C:01F0H         LINE#         167
  C:01F0H         LINE#         168
  C:0215H         LINE#         169
  C:0215H         LINE#         170
  C:0219H         LINE#         171
BL51 BANKED LINKER/LOCATER V6.22                                                      05/27/2022  16:43:43  PAGE 6


  C:0221H         LINE#         172
  C:0225H         LINE#         173
  C:022DH         LINE#         174
  C:0231H         LINE#         175
  C:0239H         LINE#         176
  C:023DH         LINE#         177
  C:0243H         LINE#         178
  C:0243H         LINE#         179
  C:024AH         LINE#         180
  C:0251H         LINE#         181
  C:0254H         LINE#         182
  C:025AH         LINE#         183
  -------         ENDPROC       DIGDISPLAY
  -------         PROC          KEYSCAN
  C:000EH         LINE#         185
  C:000EH         LINE#         186
  C:000EH         LINE#         187
  C:0011H         LINE#         188
  C:0011H         LINE#         189
  C:0014H         LINE#         190
  C:0017H         LINE#         191
  C:0017H         LINE#         192
  C:0019H         LINE#         193
  C:001CH         LINE#         194
  C:001EH         LINE#         195
  C:001EH         LINE#         196
  C:0021H         LINE#         197
  C:0021H         LINE#         198
  C:0024H         LINE#         199
  C:0024H         LINE#         200
  C:0027H         LINE#         201
  C:002AH         LINE#         202
  C:002AH         LINE#         203
  C:002CH         LINE#         204
  C:002FH         LINE#         205
  C:002FH         LINE#         206
  C:0031H         LINE#         207
  C:0036H         LINE#         208
  C:003BH         LINE#         209
  C:003BH         LINE#         210
  C:003EH         LINE#         211
  C:003EH         LINE#         212
  C:0040H         LINE#         213
  C:0045H         LINE#         214
  C:0048H         LINE#         215
  C:0048H         LINE#         216
  C:0048H         LINE#         217
  C:004BH         LINE#         218
  C:004BH         LINE#         219
  C:004EH         LINE#         220
  C:004EH         LINE#         221
  C:0051H         LINE#         222
  C:0054H         LINE#         223
  C:0054H         LINE#         224
  C:0059H         LINE#         225
  C:0063H         LINE#         226
  C:0068H         LINE#         227
BL51 BANKED LINKER/LOCATER V6.22                                                      05/27/2022  16:43:43  PAGE 7


  C:0072H         LINE#         228
  C:0077H         LINE#         229
  C:0081H         LINE#         230
  C:0086H         LINE#         231
  C:0090H         LINE#         232
  C:0093H         LINE#         233
  C:0093H         LINE#         234
  C:0096H         LINE#         235
  C:0096H         LINE#         236
  C:0099H         LINE#         237
  C:009CH         LINE#         238
  C:009CH         LINE#         239
  C:00A1H         LINE#         240
  C:00ABH         LINE#         241
  C:00B0H         LINE#         242
  C:00BAH         LINE#         243
  C:00BFH         LINE#         244
  C:00C9H         LINE#         245
  C:00CEH         LINE#         246
  C:00D8H         LINE#         247
  C:00DBH         LINE#         248
  C:00DBH         LINE#         249
  -------         ENDPROC       KEYSCAN
  -------         ENDMOD        MAIN

  -------         MODULE        ?C?CLDPTR
  C:034EH         PUBLIC        ?C?CLDPTR
  -------         ENDMOD        ?C?CLDPTR

Program Size: data=41.2 xdata=0 code=917
LINK/LOCATE RUN COMPLETE.  0 WARNING(S),  0 ERROR(S)
